:020000040800F2
:1000000030B80020E101000871290008A12800088B
:100010003D290008111E0008454E000800000000A0
:10002000000000000000000000000000490100087E
:1000300091260008000000008D0100081943000807
:10004000FB010008FB010008FB010008FB010008A0
:10005000FB010008FB010008FB010008FB01000890
:10006000FB010008FB010008FB010008FB01000880
:10007000FB010008FB010008FB010008FB01000870
:10008000FB010008FB010008FB010008FB01000860
:10009000FB010008FB010008FB010008FB01000850
:1000A000FB01000809450008FB0100086544000841
:1000B000FB010008FB01000839450008FB010008AE
:1000C000FB010008FB010008FB010008FB01000820
:1000D000FB010008114B0008AD4B0008FB010008B4
:1000E000FB010008FB010008FB010008FB01000800
:1000F000FB010008FB010008FB010008FB010008F0
:10010000FB010008B53300087D450008FB0100082D
:10011000FB010008FB010008C1450008F14500088B
:10012000FB010008FB010008FB010008FB010008BF
:10013000DFF810D000F066FD00480047FD7A0008A7
:10014000AFF3008030B80020224B19680868B0E88F
:10015000F00F80F30988BFF36F8F4FF0000080F33A
:1001600011884EF00D0E7047000000000648006830
:10017000006880F3088862B661B6BFF34F8FBFF3A3
:100180006F8F00DF00BF00BF08ED00E0EFF30980D4
:10019000BFF36F8F0F4B1A6820E9F00F106008B59E
:1001A0004FF0BF0080F31188BFF34F8FBFF36F8F05
:1001B00008F0FCFF4FF0000080F31188BDE8084014
:1001C00019680868B0E8F00F80F30988BFF36F8FF3
:1001D000704700BFD4000020EFF305807047000097
:1001E0000648804706480047FEE7FEE7FEE7FEE7D1
:1001F000FEE7FEE7FEE7FEE7FEE7FEE72D43000829
:100200003101000840EA01039B0703D009E008C957
:10021000121F08C0042AFAD203E011F8013B00F8CB
:10022000013B521EF9D27047D2B201E000F8012B17
:10023000491EFBD270470022F6E710B513460A4666
:1002400004461946FFF7F0FF204610BD30B50546BD
:100250002A460B4612F8010B13F8014B08B1A042D5
:10026000F8D01CB1002802D06D1CF1E7284630BD43
:10027000CAB2401E10F8011F8A4202D00029F9D1EB
:1002800000207047421C10F8011B0029FBD1801A86
:10029000704710B5002200E0521C835C8C5CA342C6
:1002A00001D1002BF8D1D8B2E1B2401A10BD30B55F
:1002B00004460020034600E05B1C934203D2E05C4E
:1002C000CD5C401BF8D030BD034611F8012B00F87F
:1002D000012B002AF9D118467047000070B50F4D68
:1002E00000B92868002412E00A4602E09E4203D0CA
:1002F000521C1378002BF9D1DAB2224305D02BB16E
:1003000024B1002100F8011B04E00446401C0678DB
:10031000002EE9D12860204670BD0000A001002019
:1003200070B5064604F0C6FD046805460A220021A1
:10033000304600F0C3FA2C6070BDF0B480EA0102D0
:10034000D40F4200B2EB410F02D2024608461146DA
:100350004A0042D0C30DDDB2C1F3C752AD1A202D01
:1003600035DAC1F3160141F4000204B15242C5F17D
:10037000200602FA06F12A411044B3EBD05F23D0E5
:10038000C4B1012DA0EBC35009DCF0BC4FF000421A
:1003900002EAC352DBB200F5000000F0D0BA400020
:1003A00000F1807000EBC350A0F1807040EAD17082
:1003B000490009E0490841EAC071A0EBC35000F5CB
:1003C0000000400800EBC350F0BC00F0AFBA61423F
:1003D000012202EB4101001BF6E7F0BC704781F0FF
:1003E0000041AAE780F00040A7E730B480EA0102AC
:1003F00002F0004530F0004221F0004013D090B1EF
:10040000C30DD40DC2F31601C0F31600E41A41F473
:10041000000140F400027D34914201D3641C00E0ED
:100420004900002C02DA30BC002070474FF4000075
:100430000023914201D3891A034340084FEA410146
:10044000F7D151B1914202D14FF0004105E002D203
:100450004FF0010101E06FF0010103EBC4502844AB
:1004600030BC00F063BA420005D0C0F3C75252421C
:10047000914201DC0020704700EBC15070472DE92C
:10048000FE4F81EA030404F0004421F0004100948F
:100490004FF0000B23F0004350EA01045ED052EA13
:1004A00003045BD0C3F30A54C1F30A552C44A4F2ED
:1004B000F3340194A0FB0254C1F3130141F4801101
:1004C000C3F3130343F4801301FB024400FB034E08
:1004D000840A970A44EA815447EA8357A4FB0768D1
:1004E00002958D0A05FB07854FEA932C04FB0C54FB
:1004F0002705029D4FEA065847EA1637B5EB08056F
:100500006EEB070C870E920E47EA811742EA8312C0
:10051000A7FB0201B6EB0B0164EB00042B0D43EAD1
:100520000C335E1844EB1C50DA465146E7FB0201DF
:10053000C5F313044FEA0B3343EA14534FEA043272
:10054000019C43EA0603A4F10C040294009CCDE94B
:1005500000B400F031FA03B0BDE8F08F002001468E
:10056000F9E72DE9F04D81EA030404F0004B21F096
:10057000004514464FF0000A23F0004150EA0502FE
:1005800020D054EA01021DD0C5F30A570246C5F334
:100590001303C1F31300C1F30A5640F4801543F46A
:1005A0008013A7EB0608101BD64608F2FD3873EB44
:1005B000050002D308F1010801E092185B41B8F18F
:1005C000000F03DA00200146BDE8F08D00204FF453
:1005D0008011064684460EE0171B73EB050705D312
:1005E000121B63EB050306434CEA010C49084FEA72
:1005F000300092185B4150EA0107EDD152EA030046
:1006000012D082EA040083EA0501084305D0101BDA
:10061000AB4106D20122002306E000224FF0004346
:1006200002E06FF0010253101AEB06004CEB085188
:1006300010EB0A0041EB0B01BDE8F04D00F0ADB945
:1006400070B521F0004303430CD0C1F30A550024D8
:10065000D5EB040564EB0403D617AD1AB34102DBF6
:100660000020014670BD201841EB025170BD0EB54F
:1006700040F2334102910021CDE900110A460B46B8
:1006800000F09AF903B000BD00F0004220F00040F5
:10069000C10DC0F3160040F400007F2901DA0020EC
:1006A0007047962903DCC1F19601C84001E09639F4
:1006B0008840002AF4D04042704720F00040C10D2D
:1006C000C0F3160040F400007F2901DA00207047D3
:1006D000962903DCC1F19601C840704796398840DD
:1006E0007047C1F30A5210B5C1F3130140F2FF3352
:1006F00041F480119A4201DA002010BD40F23343E8
:100700009A42A2F2334203DC524200F079F810BD63
:10071000904010BD00F0004230F000400AD0C10D02
:1007200001F56071C0F3160042EA0151C2084007AA
:100730001143704700200146704701F0004330B478
:1007400021F0004150EA010206D00A0DA2F56072C4
:10075000C1F31301002A02DC30BC00207047440FB3
:1007600044EAC104C100E01830BC00EBC25000F004
:10077000DDB830B50B46014600202022012409E0F7
:1007800021FA02F59D4205D303FA02F5491B04FA4A
:1007900002F52844151EA2F10102F1DC30BD2DE95D
:1007A000F05F0546002092469B46884606468146F5
:1007B00040241BE0284641464746224600F020F8E8
:1007C00053465A46C01A914110D311461846224644
:1007D00000F02AFA2D1A67EB01084F462246012045
:1007E000002100F021FA17EB00094E41201EA4F170
:1007F0000104DFDC484631462A464346BDE8F09F07
:10080000202A04DB203A21FA02F00021704721FA65
:1008100002F3D040C2F120029140084319467047CC
:100820000FB4002300B589B00CA900910B996FF0AB
:100830000042CB601E4B06931E4B07930423CDE969
:1008400001321D4A089202466B46002000F0B0FAC1
:1008500009B05DF814FB70B586B006464FF0FF3066
:100860000091CDE90101002015460C460490324666
:10087000694604A8FFF7D4FF02460498211825B161
:1008800008B1084600E020462860049800280DD0F2
:10089000002A02DD0098884208D0081B0094CDE9A8
:1008A00001043246694604A8FFF7BAFF06B070BDDE
:1008B000E90F000807100008750C00082DE9F04743
:1008C00091460F4680460446002614F8015B2DB180
:1008D00000F0CCF90068405DC007F6D12B2D02D0A6
:1008E0002D2D18D0641E4A463946204600F09CFB48
:1008F00027B13968A14201D1C7F8008071054FF0D6
:1009000002040BD54042002803DD04F0D3FA046052
:10091000A007BDE8F08746F48066E4E70028F8DA2F
:1009200004F0C8FA04606FF00040F2E70029A8BFA5
:100930007047401C490008BF20F00100704710B408
:10094000B0FA80FC00FA0CF050EA010404BF10BCBD
:10095000704749B1CCF1200421FA04F411FA0CF1EA
:1009600018BF012121430843A3EB0C01CB1D4FEA23
:1009700000614FEA102042BF002010BC704700EB1E
:10098000C35010440029A4BF10BC7047401C49004C
:1009900008BF20F0010010BC704710B5141E73F1A1
:1009A000000408DA401C41F1000192185B411A432F
:1009B00001D120F0010010BD2DE9F04D92469B467B
:1009C00011B1B1FA81F202E0B0FA80F22032904621
:1009D00000F02AF904460F4640EA0A0041EA0B01FA
:1009E00053465A46084313D0114653EA010019D022
:1009F000C8F140025046FFF703FF05460E46504639
:100A00005946424600F010F9084305D0012004E0A1
:100A100020463946BDE8F08D0020054346EAE076E1
:100A20002C4337430A986305E40AA0EB0800002230
:100A3000FD0A44EA47540A3002D500200146E9E79E
:100A4000010510196941DDE9084500196941BDE852
:100A5000F04DA2E72DE9FE4F804681EA0300C00F6A
:100A60000C46009021F0004123F00045B8EB020055
:100A7000A94105D24046214690461C460B460246F7
:100A800023F00040104347D0270DC7F30A00C3F3FB
:100A90000A510290401A019040286BDAC3F3130008
:100AA00040F4801B0098924620B10023D2EB030A49
:100AB00063EB0B0B01985946C0F14002504600F021
:100AC000B3F806460D4650465946019A00F0BBF869
:100AD00010EB08006141002487EA115284EAE773B1
:100AE0001A4340D0009A62B3019A012A4FEA075292
:100AF00015DC001B61EB02014FF0004202EA0752D5
:100B0000CDE90042001C41F5801132462B46FFF72B
:100B100053FF03B0BDE8F08F40462146F9E7001BC4
:100B200061EB0201001C41F5801300185B412018A5
:100B3000A2F5001747EB030140EAD570B6196D41E5
:100B400011E06D084FEA360645EAC0754FEA0752D4
:100B5000001B61EB0201001C41F5801149084FEABE
:100B600030000019514132462B4603B0BDE8F04F2A
:100B7000FFF713BF0098012240000023D0EB0202D0
:100B800063EBE073009821464FEAE074B8EB000095
:100B900061EB0401E9E783F000435BE781F000418A
:100BA00058E7C1F30A52C1F3130140F2FF3341F495
:100BB00080119A4202DA00200146704740F2334326
:100BC0009A42A2F2334202DC5242FFF719BE00F011
:100BD0002BB8000030B5041E71F1000404DB4FF0A7
:100BE0000044404264EB0101141E73F1000405DB74
:100BF0001C464FF00043524263EB0403994208BF86
:100C0000904230BD064C074D06E0E06840F001031D
:100C100094E8070098471034AC42F6D3FFF78CFAFB
:100C20002454030844540308202A04DB203A00FA21
:100C300002F1002070479140C2F1200320FA03F333
:100C4000194390407047202A06DBCB17203A41FA1F
:100C500002F043EAE07306E041FA02F3D040C2F149
:100C60002002914008431946704700000048704731
:100C7000044B030810B50446FFF7F8FF0068005D59
:100C800000F0010010BD00002DE9FF4F087883B08F
:100C90009946FF2805D0491C2D2804D000240020A7
:100CA00008E000200BE00124F9E700EB800003EBF3
:100CB0004000491C0B78FF2BF7D104B140420023C0
:100CC0000293147819461D462D2C01D02B2C04D1EB
:100CD000521C2D2C13D000240294AA461478FF2C09
:100CE0000FD00A25A3FB057801FB05814FF0000C0E
:100CF00003FB0C11521CE3194AEB0101EEE701243E
:100D0000EAE7814453EA010002D019F5C87F06DA08
:100D100003980021C0E9001107B0BDE8F08F00255D
:100D2000AE4E2F46DFF8B882184600F0DAF9CDE96A
:100D30000001B9F1000002DAC9F1000400E0044644
:100D40000023A74A1AEB030B42EB045A12E0E00718
:100D500007D02A46334638464146FFF790FB074600
:100D600088462A46334610461946FFF788FB054653
:100D70000E466410002CEAD1DDE90001B9F1000F44
:100D80005A46534606DAFFF7ECFB3A464346FFF76E
:100D9000E8FB05E0FFF773FB3A464346FFF76FFBBE
:100DA000029A0AB181F00041039AC2E90001B3E757
:100DB0002DE9FF4F1F468DB0D7E901464FF0FF38B0
:100DC0002E2045464FF000090B90B9696D1C0E9816
:100DD0008847396A824688470028F6D1BAF1FF3F32
:100DE0000AD024F4D064002E11DDBAF12B0F08D004
:100DF000BAF12D0F0BD102E0404611B08DE744F45B
:100E00008064B9696D1C0E9888478246761E6946D3
:100E1000600501D52D2000E02B208DF8000001F1A8
:100E2000010B0DF1200809E0B9696D1C0E98884787
:100E300082460F9844F40074761E0560002E02DD91
:100E4000BAF1300FF0D00B998A453ED144F08004BE
:100E500006E00F99681CA9F1010944F400740860C8
:100E6000B9696D1C761E0E98884782463028F0D0EE
:100E70002BE00B998A4505D1200603D444F0800469
:100E8000761E18E0504604F0F7F808B30DF1130190
:100E9000761E44F400748B4508D2AAF130000BF89A
:100EA000010B200607D5A9F1010003E0200602D4BA
:100EB00009F101008146A00502D50F99681C086060
:100EC000B9696D1C0E9888478246002ED1DC53E02C
:100ED000002E51DDBAF1650F02D0BAF1450F4BD1AA
:100EE000A00549D5B9696D1C24F44074761E0E988E
:100EF00088478246002E0CDD2B2804D0BAF12D0F36
:100F000007D144F48074B9696D1C0E9888478246F5
:100F1000761EE00501D52D2100E02B2108F8011BEC
:100F2000CDF82C8021E00DF12901761E44F40074E7
:100F300088450CD2AAF1300010F0FF0088F80000BC
:100F400002D10B99884509D908F1010806E0E005AE
:100F500001D5244801E042F20F708146B9696D1C49
:100F60000E98884782460F980560002E04DD504693
:100F700004F082F80028D6D1F9690E988847FF203E
:100F80008BF8000088F800000020069007904B4680
:100F90006A4608A906A8FFF777FEA00502D46FF0FD
:100FA00001002AE714F0240F0AD0E00714D1DDE98C
:100FB00006123868031D3B600068C0E900120BE0B0
:100FC000DDE90601FFF7B9FB0146E00704D1386807
:100FD000021D3A600068016028460EE700001440D8
:100FE0000000F03FF1D8FFFF426842B1016811F8FC
:100FF000013B23B1521EC0E900121846704701217F
:10100000C160881E704742685AB1C368016843B91D
:1010100083688B4205D0491E521CC0E90012002093
:1010200070474FF0FF3070472DE9F05F824600783F
:10103000002715468B460AF10104B946302801D035
:101040009DB113E014F8010B0127782803D058282C
:1010500001D045B10AE00DB1102D07D100271025B0
:1010600014F8010B02E0082500E00A250026B0462E
:101070000EE005FB080005FB06F1012701EB104619
:101080001FFA80F8B6F5803F00D3B94614F8010B7B
:10109000294600F018F80028EBDABBF1000F05D064
:1010A0000FB1641E00E05446CBF80040B9F1000FC8
:1010B00006D003F0FFFE02210160C81EBDE8F09FCC
:1010C00048EA0640FAE73A2800D2303820F02002F9
:1010D000412A01D3A2F13700884201D34FF0FF30FB
:1010E00070470EB540F2334202920022CDE9002251
:1010F0001346FFF761FC03B000BD70B58C1810F803
:10110000015B15F0070301D110F8013B2A1106D14C
:1011100010F8012B03E010F8016B01F8016B5B1E66
:10112000F9D12B0705D40023521E0DD401F8013B41
:10113000FAE710F8013BCB1A921C03E013F8015BAD
:1011400001F8015B521EF9D5A142D8D3002070BD31
:101150000029816802D041F0010101E021F0010184
:101160008160704730B587B001214FF4017001F004
:10117000CBFE00248DF817404420ADF8140005A9DB
:10118000184801F03BFB4FF4004001F08FFE164D74
:10119000284600F02BF84FF46020CDE9020401202E
:1011A0008DF804408DF8100000948DF805406946D4
:1011B000284600F055F801212846FFF7C9FF2846C8
:1011C00000F0ACF82C46204600F043F80028FAD195
:1011D000204600F0E5F8204600F02AF80028FAD171
:1011E00007B030BD00080140002401400D4910B592
:1011F000884202D1012144150AE00B49884202D1FC
:101200000121041504E0094988420AD10121CC03D7
:10121000204601F085FE2046BDE81040002101F087
:101220007FBE10BD0024014000280140003C014069
:10123000014600208968490700D501207047C06C2D
:1012400080B270470246002012680A4200D0012096
:101250007047014600208968090700D501207047C2
:1012600010B542680E4B0C791A400B6842EA042212
:101270001343436083680B4A1340D1E9024222437F
:101280004C7943EA44031A438260C26A097C22F41F
:101290007002491EC9B242EA0151C16210BD00008C
:1012A000FFFEF0FFFDF7F1FF70B5072409290AD909
:1012B000C568A1F10A0606EB4606B440A543B34053
:1012C0001D43C56007E0056901EB4106B440A54335
:1012D000B3401D4305611F23072A09D2446B521EE8
:1012E00002EB820293409C4391400C43446370BDE7
:1012F0000D2A09D2046BD21F02EB820293409C4359
:1013000091400C43046370BDC46A0D3A02EB820243
:1013100093409C4391400C43C46270BD816841F08E
:1013200008018160704700002DE9F041DFF8588026
:10133000002701463E4640F6FF750723012240463E
:10134000FFF7B2FF00240121404600F01FF8022100
:101350004046FFF777FF0028F9D04046FFF76FFFC0
:10136000864200D80646854200D30546641CE4B296
:101370000744052CE7D3B81B401B0321B0FBF1F059
:1013800080B2BDE8F081000000240140002981689E
:1013900002D041F4A00101E021F4A0018160704776
:1013A000816841F004018160704700003EB507F09C
:1013B00051FD07F067FF834C606210B182A003F01B
:1013C00055FD012008F02CF8206210B187A003F031
:1013D0004DFD00231A461946206A08F021F901281C
:1013E00002D18AA003F042FD8C4A0E20A2F545618D
:1013F0008DE807000023802289A18C4808F011FAAB
:10140000E06208B18AA000E090A003F02FFD834ABB
:101410000D207032A2F52C618DE8070000234022D8
:1014200091A1944808F0FDF9206308B192A000E072
:1014300097A003F01BFD794A0C20E032A2F523614E
:101440008DE807000023802297A19A4808F0E9F967
:10145000606308B198A000E09DA003F007FD594922
:1014600005203831CDE90001002380229EA1A1484A
:1014700008F0AAF9012806D09FA000BF03F0F6FCEF
:10148000A07910B112E0A3A0F8E74E4904203C3146
:10149000CDE9000100238022A5A1AA4808F094F913
:1014A000012806D0A8A000BF03F0E0FCE07910B14D
:1014B00012E0AEA0F8E743490B204031CDE900012E
:1014C00000234FF40072B2A1B44808F07DF901285E
:1014D00017D0B3A003F0CAFC3A4903204431CDE948
:1014E000000100238022B5A1BA4808F06DF9054635
:1014F000012808D0B8A000BF03F0B8FCE07A20B102
:1015000010E0BFA0E6E7C5A0F6E72E49072050315E
:10151000CDE9000100234FF48062CAA1CF4808F052
:1015200053F90546012D06D0CDA000BF03F09EFC67
:10153000607A10B115E0D3A0F8E7DB4A0A20A2F5E3
:101540000A618DE8070000234FF48072D7A1DC48C0
:1015500008F067F9A06408B1DAA000E0E1A003F0A8
:1015600085FCA07A98B9D04A08207032A2F5A26111
:101570008DE8070000238022E2A1E54808F051F938
:10158000E06408B1E3A000E0E9A003F06FFC0D49BE
:1015900010205431CDE9000100238022EBA1EE4858
:1015A00008F012F901280AD0ECA000BF03F05EFC9D
:1015B000A06A07F0DFFCBDE83E4007F059BCEEA092
:1015C000F4E70000000000204576656E7447726FF6
:1015D000757048616E646C657220CAC2BCFEB4B49A
:1015E000BDA8B3C9B9A6A3A10D0A00004D757853D3
:1015F000656D5F48616E646C65BBA5B3E2C1BFB445
:10160000B4BDA8B3C9B9A6210D0A0000CACDB7C59B
:10161000D0C5BAC5C1BF210D0A000000041F0020BB
:1016200053504545445F5461736B0000954000087A
:1016300053504545445F5461736BC8CECEF1B4B48A
:10164000BDA8B3C9B9A6210D0A00000053504545F5
:10165000445F5461736BC8CECEF1B4B4BDA8CAA7C1
:10166000B0DC210D0A0000004F494C5F5461736BE0
:1016700000000000152A00084F494C5F5461736B4D
:10168000C8CECEF1B4B4BDA8B3C9B9A6210D0A0025
:101690004F494C5F5461736BC8CECEF1B4B4BDA852
:1016A000CAA7B0DC210D0A0043414E5F5461736B41
:1016B000000000006D21000843414E5F5461736BD0
:1016C000C8CECEF1B4B4BDA8B3C9B9A6210D0A00E5
:1016D00043414E5F5461736BC8CECEF1B4B4BDA824
:1016E000CAA7B0DC210D0A0055534152545F546122
:1016F000736B0000254D000855534152545F5461EF
:10170000736BC8CECEF1B4B4BDA8CAA7B0DC210DAE
:101710000A00000055534152545F5461736BC8CEA8
:10172000CEF1B4B4BDA8B3C9B9A6210D0A0000001A
:101730004D696C656167655F636F756E745F546159
:10174000736B0000412900084D696C656167655F36
:10175000636F756E745F5461736BC8CECEF1B4B4B1
:10176000BDA8CAA7B0DC210D0A0000004D696C6558
:101770006167655F636F756E745F5461736BC8CE2C
:10178000CEF1B4B4BDA8B3C9B9A6210D0A000000BA
:1017900053445F52575461736B000000B13B000823
:1017A00053445F52575461736BC8CECEF1B4B4BD8D
:1017B000A8CAA7B0DC210D0A0000000042617474C1
:1017C0006572795F63617061636974795F54617395
:1017D0006B0000004D1D0008426174746572795FF2
:1017E00063617061636974795F5461736BC8CECE55
:1017F000F1B4B4BDA8CAA7B0DC210D0A00000000F6
:1018000053445F52575461736BC8CECEF1B4B4BD2C
:10181000A8B3C9B9A6210D0A000000004261747482
:101820006572795F63617061636974795F54617334
:101830006BC8CECEF1B4B4BDA8B3C9B9A6210D0A08
:101840000000000052696E674275666665725F52FD
:101850006561645F5461736B00000000BD30000877
:1018600052696E674275666665725F526561645F54
:101870005461736BC8CECEF1B4B4BDA8CAA7B0DCB6
:10188000210D0A0052696E674275666665725F5285
:101890006561645F5461736BC8CECEF1B4B4BDA80A
:1018A000B3C9B9A6210D0A00542000204F6E654E21
:1018B00045545F34475F4454555F5461736B000077
:1018C000052C00084F6E654E45545F34475F445405
:1018D00055C8CECEF1B4B4BDA8B3C9B9A6210D0A7E
:1018E000000000004F6E654E45545F34475F44541E
:1018F00055C8CECEF1B4B4BDA8CAA7B0DC210D0A3C
:10190000000000004454555F34475F5461736B001E
:10191000BD2400084454555F34475F5461736BC85D
:10192000CECEF1B4B4BDA8B3C9B9A6210D0A00004A
:101930004454555F34475F5461736BC8CECEF1B4E5
:10194000B4BDA8CAA7B0DC210D0A0000495744471E
:101950005F5461736B0000000D290008495744472C
:101960005F5461736BC8CECEF1B4B4BDA8CAA7B042
:10197000DC210D0A00000000495744475F546173A1
:101980006BC8CECEF1B4B4BDA8B3C9B9A6210D0AB7
:10199000000000000248018841F001010180704709
:1019A000346C004010B5012001F0C6FABDE81040CB
:1019B000002001F0C1BA000008B5024908440090B7
:1019C000008808BD006C004008B5024A1044009031
:1019D000016008BD006C00402DE9F04100264FF485
:1019E000A06001F00DF8FFF7BDFB4FF4E134204695
:1019F00007F04CF9204607F0FBF8482000F04AFEBB
:101A0000002006F067FA4FF4806001F007FB564CA7
:101A1000E06600F0FFF93121472003F00DF84CF2A9
:101A20004F31472002F03AFF41F61F4540F2F311D3
:101A3000284603F03BF841F287373946284602F042
:101A4000C3FF3946284602F087FF484D0122032193
:101A5000284602F0A3FE0121284602F0F1FD0121F3
:101A6000434802F0EDFD012242A1434805F00AFA85
:101A70002075011E4FF0010526D040A003F0F6F9B5
:101A800047A003F0F3F9207D0D280AD12B034E4A1D
:101A9000002138A004F01CFF207528B14BA003F0F2
:101AA000E5F9E571A57112E04EA003F0DFF901221E
:101AB00030A1002005F0E6F9207501222DA12E4865
:101AC00005F0E0F9207502E04EA003F0CFF953A035
:101AD00003F0CCF94FF47A77042004F083FC00285B
:101AE00029D0761CB6B2384604F078F90A2EF3D91C
:101AF000554803F0BBF955A003F0B8F959A003F01D
:101B0000B5F95FA003F0B2F96AA003F0AFF976A0CF
:101B100003F0ACF97E4803F0A9F97E4803F0A6F97A
:101B20006572A572E572384604F058F9BDE8F041D7
:101B300079A003F09BB97EA003F098F92573B42037
:101B4000FFF73AFF182804D03946062003F07BF946
:101B500005E0FFF727FFFFF71DFF02F0C5FB0A2E88
:101B6000C6D8BDE8F081000000000020002C014034
:101B700000140040313A000034210020A3A1A3A1A9
:101B8000CDE2B2BF5344B9D2D4D8CEC4BCFECFB597
:101B9000CDB3CAA7B0DCA1A3282564290D0A000093
:101BA000A3A1A3A1BFC9C4DCD4ADD2F2A3BA53444C
:101BB000494F5F5344B3F5CABCBBAFB2BBB3C9B95D
:101BC000A6A1A30D0A00000094410020A1B6A1B671
:101BD000B8F1CABDBBAFCAA7B0DCA1A3A1B7A1B77A
:101BE0000D0A0000A1B75344D2D1B3C9B9A6B8F1C8
:101BF000CABDBBAFCEC4BCFECFB5CDB3A1A30D0A49
:101C000000000000A1B7CEC4BCFECFB5CDB3B9D2A1
:101C1000D4D8B3C9B9A60D0A000000005761697491
:101C200020666F7220436174312044545520746FD4
:101C30002073746172742C20776169742031307361
:101C40002E2E2E2E200D0A00584B030841544B2DEA
:101C500044545520496E6974204661696C202E2ECB
:101C60002E0D0A00C7EBB0B4D5D5D2D4CFC2B2BDC9
:101C7000D6E8BDF8D0D0BCECB2E93A0D0A000000BD
:101C8000312ECAB9D3C3B5E7C4D4C9CFCEBBBBFAD2
:101C9000C5E4D6C3C8EDBCFEBCECB2E9445455C49F
:101CA000DCB7F1B5A5B6C0D5FDB3A3B9A4D7F70D80
:101CB0000A000000322EBCECB2E9445455B4AEBF69
:101CC000DAB2CECAFDD3EB53544D3332CDA8D1B6E0
:101CD000B5C4B4AEBFDAB2CECAFDCAC7B7F1D2BB83
:101CE000D6C20D0A00000000332EBCECB2E9445409
:101CF00055D3EB53544D3332B4AEBFDAB5C4BDD374
:101D0000CFDFCAC7B7F1D5FDC8B70D0A0000000084
:101D1000A84B0308084B0308436174312044545511
:101D200020496E6974204661696C0D0A000000004C
:101D3000436174312044545520496E6974205375B1
:101D40006363657373200D0A000000002C4C40F69D
:101D5000C64601250420FFF7E7FA40F6E441484370
:101D6000000B2083B04201D9062016E0A0F677418F
:101D70004F2901D2052010E0A0F61D41592901D2BA
:101D800004200AE0A0F6CD314F2901D2032004E05F
:101D9000A0F67331592902D2022020712BE0A0F65F
:101DA00037313B2901D2257109E040F622318842C2
:101DB00002D20020207102E0207901281BD8607A2D
:101DC00028B12179012916D8012810D013E0182153
:101DD000B420FFF7F9FD85F313880A4801680A4A21
:101DE00001F4E06111430160BFF34F8FFEE7012171
:101DF000064802F025FC47F2625007F0A3F8A9E775
:101E0000000000200CED00E00400FA05000C00408A
:101E1000FEE700007FB50121052001F075F84FF4C1
:101E20000060ADF8000048208DF80300314D032418
:101E30008DF802406946284600F0E0FCA814ADF891
:101E4000000018208DF803008DF8024069462846EE
:101E500000F0D4FC14208DF8000001258DF803500B
:101E60008DF801508DF80250684600F097FD012171
:101E7000480601F031F8204E304600F03FF8684641
:101E800000F064F900248DF806408DF807508DF8B5
:101E9000045002208DF808508DF802408DF805009E
:101EA0008DF809408DF8034030208DF80A40ADF8D8
:101EB00000008DF80B406946304600F0A3F88DF81D
:101EC0000A408DF80B408DF80C50ADF80040ADF88D
:101ED0000440ADF80240ADF80640ADF808408DF87A
:101EE0000D50684600F020F801220221304600F033
:101EF00081F87FBD0008014000640040094910B529
:101F000088424FF0010101D14C0601E04FF080649E
:101F1000204600F0EDFF2046BDE81040002100F013
:101F2000E7BF000000640040F0B5827A01219140D3
:101F30002E4A136843F0010313602C4B1C331C68BA
:101F40008C431C60294D067B294C0C35A6B92E68A4
:101F50008E432E604688C78846EA0746877A04EB98
:101F6000C707C7F840660688878846EA0746877A23
:101F700004EBC707C7F84466067B012E12D12E6812
:101F80000E432E60867A056804EBC6064FEA354597
:101F9000C6F84056867A456804EBC6044FEA3545D4
:101FA000C4F84456114CC57A241D002D256806D06E
:101FB0000D4325600D4C0589143415B104E08D43A3
:101FC000F7E725688D4325600589012D02D1256835
:101FD0000D432560407B012802D118680843186032
:101FE000106820F001001060F0BD000000660040A5
:101FF00000600040002A426901D00A4300E08A43A1
:102000004261704710B50368002223F002030360A9
:10201000036843F0010303604FF6FF7300E0521CB6
:102020004468E40701D19A42F9D14268D2073ED010
:102030008A79012A02683CD022F080020260CA79C3
:10204000012A026838D022F0400202600A7A012A8E
:10205000026834D022F0200202604A7A012A026823
:1020600030D022F0100202608A7A012A02682CD055
:1020700022F008020260CA7A012A026828D022F0FF
:10208000040202608A78CC78920742EA04620C79F2
:1020900042EA04424C79098842EA0452491E0A4342
:1020A000C261016821F001010160002114E00020FB
:1020B00010BD42F08002C1E742F04002C5E742F0A5
:1020C0002002C9E742F01002CDE742F00802D1E752
:1020D00042F00402D5E7491C4268D20701D0994278
:1020E000F9D14068C007E2D1012010BDF0B585B03C
:1020F0000024CDE9004004208DF808008DF8094047
:102100008DF80A20684603E00B5D0519641CEB722C
:102110009442F9D30C4F0146384600F093F8064636
:102120004FF6FF7500E0641C3146384600F0EAF8CF
:10213000012802D0AC42F6D101E0AC4202D100202D
:1021400005B0F0BD0120FBE7006400400021817173
:10215000C171017241728172C1728170C1700321BB
:10216000017102214171012101807047324C022628
:102170004FF000086427607B012830D02E4D743565
:102180002E7094F858006870E078B0FBF7F107FB08
:102190001100A870606E29498146FEF726F9FEF706
:1021A0008CFAE8704846FEF76FFA4FF47A7190FBAC
:1021B000F1F201FB12000A2190FBF1F02871207965
:1021C00068716079A8711220E8710822294641F6E9
:1021D0009810FFF78BFFC82006F0B4FECBE7164837
:1021E00017497C3006700B88B3FBF7F207FB1232FD
:1021F00042708A788270CA78C2700A7902714A790C
:102200004271897981711821C1710146082242F217
:102210000100FFF76BFF2078AB2807D0E07B142884
:1022200007D384F80F8084F80D80D4E784F80D80FC
:10223000D1E7401CE073CEE70000002000007A44A4
:102240006401002030B50246002093685B0108D489
:102250009068000101D5012003E09068C00044D5DA
:10226000022002EB0012D2F8803103F00103C2F821
:1022700080310B7AC3B3D2F880414D681C434B7A4E
:1022800043EAC5031C43C2F880418B7A03F00F0375
:102290008B72D2F8843123F00F03C2F88431D2F864
:1022A00084318C7A2343C2F88431CB7A8C7B0D7BCA
:1022B00043EA04634C7B240444EA05242343C2F824
:1022C0008831CB7B8C7C43EA04634C7C097C2404FE
:1022D00044EA01210B43C2F88C31D2F8801141F05D
:1022E0000101C2F8801130BD01E00420FBE7D2F803
:1022F00080314C7A23430C8843EA4453C2F880313E
:10230000C3E70000002221B1012905D0022906D12E
:1023100012E08268114801E08268114802401149C8
:10232000501A8A4214D00ADCA2B16FF080601018F3
:102330000FD002280CD10FE082680B48EEE7B0F511
:10234000007F09D00949401803D0B0F5003F03D001
:1023500000207047022070470120704703000004EE
:102360000003000800010008000003100001FFF74F
:102370000548416B11F0450FFBD040F2FF518163DE
:10238000406900F0080070470080014010B50B481C
:102390000024416B11F0450FFBD0480702D5032400
:1023A000042003E0C80705D00124204600F0A2FF66
:1023B000204610BD40F2FF50F8E7000000800140C9
:1023C00070B50C46194906460025486B10F0450FBC
:1023D000FBD0410702D50324042003E0C00705D049
:1023E0000124204600F086FF204670BD00F0C2FFA9
:1023F000B04212D140F2FF5000F07CFF002000F00C
:10240000D1FF10F4604F03D0810404D5132070BDB8
:10241000000C208007E0410401D5102070BD0004AD
:1024200001D50F2070BD284670BD0000008001401E
:10243000C10002D5024908607047024948607047F0
:1024400004040240000002400029016802D041F06B
:10245000010102E04FF6FE7211400160704700007A
:1024600001460020CA0001D5034A00E0034A126871
:102470000A4200D0012070470004024000000240E0
:1024800030B5036847F6F07293430C6A8A682243BA
:10249000D1E904452C4322438C692243CC69224371
:1024A0004C6A22438C6A22431A430260CA68426023
:1024B0000A6882604968C16030BD00000024244D74
:1024C000671E264600233A461946286A06F0DCFFB6
:1024D000287A01280DD024E003F0E4FF10F0FF0F6C
:1024E0000AD01CA002F0C2FC0A2006F02BFD641CDE
:1024F000E4B20A2CF0D316E000242E73082119A0B0
:1025000006F0E0FA0FE000BF03F0CCFF10F0FF0F81
:1025100014D010A002F0AAFC0A2006F013FD641CDF
:10252000E4B20A2CF0D300231A461946286A07F0B1
:1025300077F844F6526006F005FDC3E700242E73D9
:1025400008210BA006F0BEFA01202872EBE700007C
:1025500000000020BDF8C8EBC5E4D6C3CAA7B0DCB4
:102560000D0A000041542B4353510D0A0000000096
:1025700041542B434C4B0D0A0000000070B590B045
:10258000044640216846FDF756FE0425002104F16B
:10259000800000E0401C0278322AFBD14FEA0D0295
:1025A00010F8013B5354491C0378C9B2222BF7D1D0
:1025B0002F4E1046311D07E06D1CEDB204EB851067
:1025C000FDF782FE311D0020FDF788FE0100F3D1EA
:1025D000274904F5E07008310E46FDF77FFE0146FD
:1025E00007250AE06D1CEDB204EB8510FDF76CFECB
:1025F00031460020FDF772FE01460029F2D11C4948
:1026000004F510700C310E46FDF768FE01460925F1
:102610000AE06D1CEDB204EB8510FDF755FE314666
:102620000020FDF75BFE01460029F2D104F5A07001
:10263000FDF776FE0F4D288004F5C070FDF770FEA3
:10264000A87004F50070FDF76BFEE87004F52070CB
:10265000FDF766FE287104F53070FDF761FE6871C4
:1026600004F54070FDF75CFEA87110B070BD00006D
:10267000049C00086401002010F8861F303940785F
:1026800001EB8101D02202EB41010844C0B2704746
:102690007047000010B50446042001F031FE0948DF
:1026A0004FF47A7104704C43012141804FF0E020D7
:1026B000016941F0020101614461016941F00101D8
:1026C000016110BDBC0000202DE9FC5F0025484CD5
:1026D00000954FF4806801954027C4F81080C4E944
:1026E00002750E464FF0080B1021C4E900B1A9464F
:1026F000204600F089FE1020FFF73AFE00284CD15A
:102700003C48BA464F460089000420603720C4E99F
:10271000010AC4E90398204600F076FE3720FFF74F
:1027200027FE002839D1411E04F11400C0E9001B26
:10273000302181600221C0E903170121416100F0CD
:10274000F1FD3320C4F808A0C4E90070C4E903789F
:10275000204600F059FE3320FFF70AFE04001CD18A
:10276000254F4FF4001AE94640F22A68786B10EAC8
:10277000080F0AD1504600F003FE0028F6D000F002
:102780003DFE49F825006D1CF0E7082000F0F8FD3B
:1027900028B1082000F0AEFD0420BDE8FC9F022017
:1027A00000F0EEFD20B1022000F0A4FD0220F4E7CD
:1027B000202000F0E5FD20B1202000F09BFD062048
:1027C000EBE74FF40075284600F0DAFD20B128460B
:1027D00000F090FD0720E0E740F2FF5000F08AFD96
:1027E000009800BA7060019800BA30602046D4E7C3
:1027F00004A800204801002000800140F0B5CA78FC
:10280000002502F00F03D20601D58A7813430A7817
:102810004FF00F0E12F0FF0F4FF001021CD00468B2
:102820000F8802FA05F63740B74211D14FEA850CFE
:102830000EFA0CF724EA070703FA0CF43C43CF78AE
:10284000282F02D0482F02D002E0466100E0066146
:102850006D1C082DE4D304600C88FF2C1ED944683D
:102860005FF0000606F1080702FA07F50F882F400F
:10287000AF420FD14FEA860C0EFA0CF7BC4303FAB5
:102880000CF73C43CF78282F00D14561CF78482FF3
:1028900000D10561761C082EE4D34460F0BD000031
:1028A00007A002F0E3FA012080F3138807480168CB
:1028B000074A01F4E06111430160BFF34F8FFEE767
:1028C0006565726F7221210D0A0000000CED00E0B9
:1028D0000400FA0502494CF6CC400860704700003D
:1028E0000030004002494AF6AA2008607047000004
:1028F000003000400149486070470000003000404F
:1029000001498860704700000030004008B5074D5D
:102910004FF0FF34012300941A460821686A06F03C
:10292000F9FC0007F6D5FFF7DDFFF3E70000002014
:10293000014908607047000000300040FEE70000D9
:1029400008B50A4C4FF0FF350026012300951A46C2
:102950000421606A06F0DEFC4007F6D5D4E91810C1
:10296000FDF7EBFCC4E91860EFE700000000002071
:10297000704708B54FF4C06000F042F831208DF880
:10298000000000208DF801008DF8020001208DF874
:102990000300684600F002F808BD000070B50F2380
:1029A000C47801780122F4B1144C2468457804F409
:1029B000E064C4F5E064240AC4F10406E3408478CA
:1029C000B5401C402C4301F1E021230181F8003483
:1029D000007800F01F018A404009800000F1E020EB
:1029E000C0F8002170BD01F01F008240480980003E
:1029F00000F1E020C0F8802170BD00000CED00E087
:102A00000249084302490860704700000000FA05C7
:102A10000CED00E00026714D714C4FF0D20BB24628
:102A2000207C012803D0607C002860D0C8E040F200
:102A300013590620FEF778FCA0F16502E0824A45B2
:102A4000F4D240F6E4414843FDF711FE654A664B77
:102A5000FDF715FD0022654BFDF783FD0022644B59
:102A6000FDF77FFDFDF73DFEA17C25F81100491C17
:102A7000C8B2A074642839D30022411E16E000BFFA
:102A800002F1010808F0FF030CE000BF35F813C0A5
:102A900035F81270BC4503D225F812C025F8137022
:102AA0005B1CDBB28342F1D308F0FF028A42E7DB12
:102AB00020F00100285A64214843B0FBFBF0C1B26A
:102AC000A17084F812A04BA002F0D0F9A078A0F178
:102AD0001E01452900D8E0706328AAD884F810A008
:102AE00084F811A00121464801F0AAFD68E0062003
:102AF000FEF71AFCE082B0F5AF7F41D940F6E44121
:102B00004843FDF7B4FD374A374BFDF7B8FC0022C8
:102B1000364BFDF726FD0022354BFDF722FDFDF774
:102B2000E0FDA17C25F81100491CC8B2A0748146C3
:102B3000052825D300204A46531E15E000F1010860
:102B400008F0FF010CE000BF35F811C035F8107037
:102B5000BC4503D225F810C025F81170491CC9B234
:102B60009142F1D308F0FF009842E7DB29F0010021
:102B7000285A64214843B0FBFBF0A07084F812A0EF
:102B8000E078A178421D914208D2401F814205DDC4
:102B9000124A608B6E3A1154401C6083608B32285D
:102BA0000ED30E4900206E390A5C401CC0B2164498
:102BB0003228F9D33220B6FBF0F0E070A4F81AA066
:102BC000E0781E2801D801206074207C012801D003
:102BD0004FF47A7006F0B6F922E7000022020020D6
:102BE00000000020CDCCCCCCCCCCFC3F00FEAF40D4
:102BF000000014404F696C203D2025640000000057
:102C0000000800403E48002508B53E4C6F1E00F10C
:102C1000400B2E4600F1800A00F1C00900F58078D3
:102C20000097012300221021606A06F073FBC006A2
:102C3000F6D5207B78B1324800F084F82EE000BF52
:102C400003F030FC88B130A002F010F96D1CEDB239
:102C50000A2006F077F90A2DF2D300BF03F03CFCFE
:102C600028B12DA002F002F940E00025F6E701208E
:102C700020732FA002F0FAF8214800F063F82148F1
:102C800001211C3005F01EFF1E4801211D3005F0FA
:102C900019FF1C4801211E3005F014FFE07C0A28B2
:102CA00011D84021164805F00DFF322003F096F8A8
:102CB0004021584605F006FF322003F08FF8E07CF3
:102CC000401CE07412E0E6744021504605F0FAFE24
:102CD000322003F083F84021484605F0F3FE32200D
:102CE00003F07CF84021404605F0ECFE0821606AC4
:102CF00006F0D6FA40F6B65006F024F990E7000048
:102D00003204002000000020BDF8C8EBC5E4D6C3A3
:102D1000CAA7B0DC0D0A0000445455BDF8C8EBCD7D
:102D2000B8B4ABD7B4CCACCAA7B0DC0D0A00000075
:102D3000445455BDF8C8EBCDB8B4ABD7B4CCAC0D4A
:102D40000A00000030B591B0044640216846FDF706
:102D500072FA40216846FDF76EFA254D25A16846B6
:102D6000AA6D02F093F869462046FDF7ADFA4021BE
:102D70006846FDF760FAAA7824A1684602F086F852
:102D8000694604F14000FDF79FFA40216846FDF7CF
:102D900052FA2449686EFDF728FBFDF7BBFC02469A
:102DA0000B4621A1684602F071F8694604F18000E3
:102DB000FDF78AFA40216846FDF73DFA2A7921A1FC
:102DC000684602F063F8694604F1C000FDF77CFA3A
:102DD00040216846FDF72FFA6A7920A1684602F083
:102DE00055F8694604F58070FDF76EFA11B030BDF4
:102DF000000000207B274657545F4361725F537089
:102E0000656564273A272564277D00007B274657A0
:102E1000545F4361725F4F696C273A272564277DB1
:102E20000000000000007A447B274657545F43614E
:102E3000725F4D696C65616765273A27252E32669A
:102E4000277D00007B274657545F564355426174E7
:102E500074657279273A272564277D007B274657BA
:102E6000545F34475F5369676E616C273A27256466
:102E7000277D000002490A6842EA80000860704726
:102E8000007000400748016841F0040101600168DA
:102E900041F0020101600448016841F00401016051
:102EA00030BF70470070004010ED00E0034A5168E9
:102EB00021F440410143516070470000001002407E
:102EC000044A0029516901D0014300E08143516166
:102ED0007047000000100240044A0029D16901D067
:102EE000014300E08143D1617047000000100240BF
:102EF000044A0029116901D0014300E081431161B6
:102F00007047000000100240044A0029916901D076
:102F1000014300E0814391617047000000100240CE
:102F2000044A0029D16801D0014300E08143D16007
:102F3000704700000010024001490860704700001F
:102F40004004424230B51F494A6812F00C031E4A41
:102F500003D0042B01D0082B21D002604A680F2334
:102F60001A4C03EA1212A35C0268DA4042604B6812
:102F7000072505EA1323E35C22FA03F383604B6819
:102F800005EAD323E35CDA40C2604968032303EA1D
:102F90009131231F595CB2FBF1F1016130BD4A68E8
:102FA0004B6802F470124FF0020413F4803F04EBFC
:102FB000924202D04B689B0301D5054B00E0024BC7
:102FC0005A43CAE70010024000127A00C4000020F1
:102FD00000093D002DE9F0410E4604464168D4E960
:102FE0000230181A081A904200D910460746481EA7
:102FF0000340CD1ABD4200D93D4620682A461844F8
:103000003146FDF7FFF87A1B71192068FDF7FAF8D1
:10301000A0683844A0603846BDE8F08170B5044629
:103020001021002004F0E4FF05001BD0002601223F
:103030002CB1611E0C420CD0B4F1004F14D82146C3
:103040005FF0000002FA00F4A14202D9401C2028DF
:10305000F8DB2146002004F0CBFF286020B1EE60B1
:10306000C5E90146284670BD2946002004F0B4FF9A
:10307000002070BD2DE9F04104460E46D4E902015E
:10308000401A904200D9104607466068421E11401F
:10309000451ABD4200D93D4620682A4601443046C3
:1030A000FDF7B0F87A1B70192168FDF7ABF8E068FE
:1030B0003844E0603846BDE8F0810000E6B0002604
:1030C0008DF880614FF4C0716846FDF7B4F851A0E7
:1030D0000025D0E90010CDE9611050A0514CD0E995
:1030E0000010CDE963104FF0FF3A0DF140080127C1
:1030F000002352461946206A06F0C6F9E06ED0E970
:103100000212914214D0012260A9FFF7B3FF464A90
:10311000A16E9DF880015054491CA16603F0F0F99E
:10312000A16EB1F5007F63D33F4805F0F9FD5EE085
:10313000A06E00285CD03D493B48FDF7AAF830B1AD
:103140003A493948C91DFDF7A4F830B10AE0A77320
:103150001021606A06F080F804E0A6731021606A0E
:1031600006F09EF832493048FDF7B8F80146E946C6
:103170000AE06D1CEDB209EB8510FDF7A5F82C49AE
:103180000020FDF7ABF801460029F2D163A94046C3
:10319000FDF77FF828B161A94046FDF77AF808B33A
:1031A00024E06846FFF768FA0E2801D905200EE0F2
:1031B000A0F10A01042901D8042008E0811F032995
:1031C00001D8032003E0C11E022902D80220607149
:1031D0000CE0012803D9022801D8677106E028B95C
:1031E000667103E06846FFF7C9F967730025A666B4
:1031F00000231A461946206A06F012FAA07B01281D
:1032000003D10821606A06F04BF8032005F09AFE0E
:103210006EE7000041542B434C4B000041542B43BC
:10322000535100000000002032020020DC9B000807
:10323000049C00082DE9FC4700258046009528469F
:10324000019500F0AFF8800102D50E20BDE8FC87A3
:10325000264F6946388980B2FFF736FA0028F5D143
:103260003720234C402601994FF0060A4FF480691D
:10327000B8F1010F1FD0C90335D53989C4F81090B2
:103280000904C4E90010C4E90265204600F0BCF856
:103290003720FFF76DF80028D8D1C4E9005AC4F8E8
:1032A000109000BFC4E90265114800F0ADF8062097
:1032B000FFF75EF8CAE7490315D53989C4F81090BD
:1032C0000904C4E90010C4E90265094800F09CF84B
:1032D0003720FFF74DF80028B8D10220C4F810902D
:1032E000C4E9000ADEE72520B0E70000480100201D
:1032F00004A8002001498863704700000080014055
:103300000149886370470000008001400149C1F80D
:10331000A00070470000304201490860704700007B
:103320008C05304210B5094A0168516241689162CA
:10333000D16A21F0F703D0E902142143D0E9044017
:10334000044321431943D16210BD000000800140B5
:1033500006480021016041608160C1604162816274
:10336000C162034A8263C16370470000008001406C
:10337000FF07C00001480069C0B2704700800140EB
:10338000034A01460020526B0A4200D001207047D8
:10339000008001400248006800F003007047000010
:1033A0000080014008B5024908440090006808BD4B
:1033B0001480014000F0DCBB044A0029D16B01D02D
:1033C000014300E08143D163704700000080014069
:1033D00030B5094B5A6847F6FF618A43017D84681E
:1033E000C568214344682C43214304680069214394
:1033F00001431143596030BD008001400148D0F8BD
:10340000800070470080014010B5084A0168916053
:10341000D168CB0AD0E901142143D0E90340044329
:10342000DB0221431943D16010BD00000080014040
:1034300004490A6822F003020A600A6802430A602B
:1034400070470000008001400148FFF709B8000004
:10345000002000102DE9F04101461948002640687F
:10346000032814D018B1012801D0022826D1B1F5C3
:10347000805F0CD04FF4006800250127114C4145B6
:103480000ED10120FFF7D6FE060003D016E027205C
:10349000BDE8F081277525606560C4E9025809E040
:1034A0000020FFF7C7FE060008D12775256065607C
:1034B000A560E56003482561FFF78AFF3046E7E72E
:1034C00048010020ECA700202DE9F0438D49DFF8EA
:1034D00038824D6880F84E500989A0F84C10D8F811
:1034E00000100A0E93090370C2F38303437002F0C5
:1034F000030282700A0CC2700A0A02714171D8F884
:103500000440210E0901C180C288C4F3074142EA88
:103510001112C28001F00F010172C4F30721CA0920
:103520004272C1F380128272C1F34012C272C1F3BF
:10353000001202734FF0000C80F80DC042464FF0AD
:1035400001099668330EC6F30742C6F3072725B173
:10355000012D02D0022D2BD03CE08907090D01611D
:10356000E1B2046944EA81010161016941EA931110
:103570000161C3F3C201017503F0070141755109EF
:103580008175C2F38201C1759107490F0176027EF0
:10359000394642EAD11202760269037E521C9B1C14
:1035A000047A9A4009FA04F35A43C0E9112311E05E
:1035B000A106890A0161016941EA032101610169EA
:1035C0001143016102693946521CD20442644FF42E
:1035D00000728264C1F3801242768906490E00F8B7
:1035E0001A1FF1B2027842EAD11200F8012B01F061
:1035F0007F0100F8011BD8F80C20110ECB0900F850
:10360000013BC1F3411300F8013BC1F3820300F811
:10361000013B8907090F01700378C2F3074143EAB0
:10362000911300F8013BC1F34013037080F801C00F
:1036300001F001018170C2F30721CB09C370C1F30E
:1036400080130371C1F340134371C1F300138371FD
:10365000C1F38103C37101F003010172C2F346019A
:1036600041724A4680F80A90274B103319680C0EB5
:1036700004730C0C2402C481C589C1F307242543BB
:10368000C58109060161596805690C0E45EA0444C3
:1036900004610569C1F3074445EA0424046105692E
:1036A000C1F3072425430561017599680C0E447523
:1036B0000C0C240684618569C1F3072445EA04449F
:1036C00084618469C9B244EA01218161D96884694D
:1036D00044EA11648461047FC1F3074344EA13148C
:1036E00004771B071B0DC383C48BC1F307231C4343
:1036F000C483C1F3460180F8201080F82120604681
:10370000BDE8F083480100206CA700201CB5002014
:10371000009001208DF804009DF80400012803D1D9
:10372000684600F007FC08B1FF201CBD0098C0F3FC
:1037300043201CBD10B5FFF7E9FF042803D0FF2884
:1037400003D0012010BD002010BD022010BD0000DC
:1037500010B5FFF70EF900F009F9FFF7F9FD00F0D9
:1037600037F9002823D100F025F800281FD1104890
:10377000012101750021016041608160C16001612A
:10378000FFF726FE0A485038FFF79EFE00280ED1AC
:1037900007485038B0F84C00000400F0B5FB002892
:1037A00005D1BDE810404FF40060FFF753BE10BDD7
:1037B000ECA700202DE9F84F01200025ADF800000E
:1037C000FFF7E8FDA8B3DFF8E090D9F8040004287B
:1037D00068D0364C4FF0C00A00260220C4F808A07A
:1037E000C4E900604FF48068C4E903682046FFF72D
:1037F0000BFEFEF7CBFD05001DD1FFF7D3FDA4F1B5
:10380000880738600420FFF7CDFD78600820FFF7B7
:10381000C9FDB8600C20FFF7C5FDF860D9F80400B9
:103820004F4650B1012808D0062806D0022804D0FF
:1038300013E0FFE72520BDE8F88F0320E4E80260ED
:10384000402084E841011948083CFFF7DDFD694646
:103850000320FEF7B5FD0500EDD17868042821D0DE
:10386000BDF80000B860000420600920C4E9010A26
:10387000C4E903680D48FFF7C7FDFEF787FD0500A3
:10388000D9D1FFF78FFD094C983C20600420FFF749
:1038900089FD60600820FFF785FDA0600C20FFF720
:1038A00081FDE0602846C6E74801002004A800200A
:1038B00070B505468CB00C461148FEF7B9FD114EA7
:1038C00000213046FEF7C0FD0F48CDE9000500207D
:1038D000A108CDE902018021CDE90401890006910A
:1038E0008900CDE907108900CDE909106946304605
:1038F000FEF7C6FD01213046FEF7A6FD0CB070BDF7
:1039000000F00010440402408080014070B505467C
:103910008CB00C461248FEF78BFD124E002130464B
:10392000FEF792FD1048CDE9000510200290A00896
:10393000039000208021CDE90401890006918900CF
:10394000CDE907108900CDE9091069463046FEF738
:1039500097FD01213046FEF777FD0CB070BD0000E9
:1039600000F00010440402408080014038B501217D
:103970003020FFF7C9FA4FF4F850ADF800000320EB
:103980008DF802001820104C8DF80300694620467F
:10399000FEF734FF0420ADF8000069460B48FEF73F
:1039A0002DFF8020ADF8000048208DF80300694607
:1039B0002046FEF723FF01218802FFF781FA01214B
:1039C0000220FFF77DFA38BD0010014000140140CD
:1039D0002DE9F05F62484FF00009B2210175C0F88F
:1039E0000090C0F80490C0F80890C0F80C90C84649
:1039F0004F46C0F81090FFF7EBFC0320FFF718FDCF
:103A00000120FFF783FC564C4FF4806518342046A4
:103A100027606760A760C4E90375FFF7F5FC4FF402
:103A2000803A564601E0761E1CD08020FFF7A8FCA5
:103A30000028F8D0B6B140F2FF50FFF75BFC4FF41E
:103A4000D5702060211D08204026256181E8C10035
:103A500043481830FFF7D8FC424A5046516B4FF0AC
:103A6000370B05E00320BDE8F09F3E49496B401E3F
:103A700011F0450F12D008B1480712D50420FFF706
:103A800039FCA660C4E9007B3548C4E903751830E9
:103A9000FFF7BAFC3720FEF76BFC0CE00028E4D1FE
:103AA000ECE7480602D54020FFF724FC2E48012110
:103AB0004FF080484160A660C4E9007BC4E903750B
:103AC0002748BA461830FFF79FFC3720FEF750FC16
:103AD000070043D1A660C4E900AB2148C4E903A5AF
:103AE00057461830FFF790FC3720FEF741FC0028BE
:103AF000B9D11E4948EA01002060211D2920256115
:103B000081E8C10016481830FFF77EFC15490027F0
:103B1000486B10F0450FFBD0400704D50327042065
:103B2000FFF7E8FB1AE040F2FF50FFF7E3FB00204D
:103B3000FFF738FCC10F09F1010903D14FF6FF71FE
:103B40008945C7D34FF6FF72914501D31B208AE701
:103B500010F0804F02D0044802214160384682E7CD
:103B6000ECA70020008001404801002000001080E8
:103B700070B50D4CE1680020012907D10B49886020
:103B800040F24C40C8600C20FEF7F2FB20704FF46E
:103B900080752846FFF7B4FB00212846FFF70CFC90
:103BA00001202061207870BD480100200080014084
:103BB000184C40F2F236607801280CD005F04AF932
:103BC00000F0A2F860660120607005F051F93046FF
:103BD00005F0B8F9EFE702220FA1164803F076F9D5
:103BE000207598B92225606EFCF794FD0B460246BD
:103BF00011A1134801F04AF929460E4802F03BFD95
:103C000020750F4A0FA10B4803F07AFA094802F019
:103C100019FDDCE700000020313AC0EFB3CCCAFD4B
:103C2000BEDD2F553132C0EFB3CCCAFDBEDD2E74E0
:103C3000787400006C310020252E316600000000F1
:103C40009451002025323073000000002DE9FF5F01
:103C50002A4800251E4690460F46057005614FF024
:103C6000010AC0F80CA02649CD624068022802D1A2
:103C70004FF400787F0A234C4FF4806B1020C4F877
:103C800010B0C4E900804FF04009C4E90295204615
:103C9000FFF7BAFB1020FEF76BFB00282AD1411E6C
:103CA00004F1140006FB08F6E0E80216902102C0B9
:103CB000022180E8220404F11400FFF733FB1220F4
:103CC000C4F810B0C4E90070C4E902952046FFF7BB
:103CD0009BFB1220FEF74CFB04000BD101210802D4
:103CE000FFF76AFB0120FFF717FB31460098FFF74B
:103CF000DFFD204604B0BDE8F09F00004801002031
:103D00000080014004A80020F0B59FB000273E4687
:103D10004BA104A803F0BEF94C4C4D4D0028207572
:103D200064D0002001900290039045A002F04BFD6A
:103D30002075011E02D047A001F098F804A802F0F7
:103D400090FC2075132248A1414803F0BFF820756C
:103D500000282AD100213E4802F08DFC207549A19F
:103D60003B4803F0CDF94DA1394803F0C9F90022D1
:103D700013464EA110A8EE6801F088F83146344889
:103D800002F079FC207510AA4AA1314803F0B8F975
:103D900000212F4802F06FFC20752C4B47497033EF
:103DA0002B48EA6803F0BEFA2075294802F04AFC65
:103DB000132243A1264803F089F82075324648A112
:103DC00001A801F063F801AA47A1214803F098F97E
:103DD00000211F4802F04FFC20751C4B37497033FF
:103DE0001B48EA6803F09EFA207525E004A802F05B
:103DF00038FC207503221CA1154803F067F82075D4
:103E0000011E05D039A001F031F81FB03846F0BDD1
:103E100022210F4802F02FFC20750C4B27497033EC
:103E20000B48EA6803F07EFA207528B9234801F0B0
:103E3000B3FCFCF782FC0746054802F003FCE4E70C
:103E4000313AC0EFB3CCCAFDBEDD00000000002057
:103E50006C310020B4B4BDA8CEC4BCFECAA7B0DC8F
:103E60002825642900000000313AC0EFB3CCCAFD18
:103E7000BEDD2F553132C0EFB3CCCAFDBEDD2E748E
:103E800078740000A1B7B7C9D2EDB3B5B6D3553138
:103E900032C0EFB3CCBCC7C2BC0A0000A1B7C0EFB0
:103EA000B3CCB4F3D0A1A3BA00000000252E316634
:103EB000000000002532307300000000B206002030
:103EC000313AC0EFB3CCCAFDBEDD2FBCC7C2BCC007
:103ED000EFB3CCCAFDCEBBD6C32E747874000000FD
:103EE000307825780000000025730000A3A1A3A16D
:103EF000B4F2BFAACEC4BCFECAA7B0DCA1A32825D9
:103F000064290D0A00000000094910B50860072067
:103F10004860402088600020C8604FF480600861DD
:103F20000846FFF771FABDE810400720FEF720BAF7
:103F300004A8002070B505460748084C0089000415
:103F4000A06040F24D40E0600D20FEF711FA00281D
:103F500001D16169296070BD4801002000800140E5
:103F600070B5084C002500BFFFF76EFA20B9206934
:103F700010B920780028F7D0207808B1207870BDDB
:103F8000284670BD4801002070B50A4C002500BFCE
:103F9000FFF75AFA20B9206910B920780028F7D025
:103FA000207808B1207870BD40F2FF50FFF7A2F9E9
:103FB000284670BD480100202DE9FF4F0E4681B014
:103FC0003149002000901D461746087008614FF0E7
:103FD000010BC1F80CB02D4AD0624A68022A01D107
:103FE0001702760A2A4C09894FF0400A0904216019
:103FF0003721C4E9011A80464FF480692046C4E99C
:104000000389FFF701FA3720FEF7B2F9002838D10B
:104010001720C4F808A0C4E900502046C4E9038969
:10402000FFF7F2F91720FEF7A3F9002829D119208C
:10403000C4F808A0C4E900604646C4E903892046E4
:10404000FFF7E2F91920FEF793F9002819D104F1DE
:104050001401401E7D43C1E900059020C1E902061C
:10406000C1E9046B0846FFF75DF901210802FFF77B
:10407000A3F90120FFF750F929460198FFF746FC04
:10408000304605B0BDE8F08F4801002000800140B7
:1040900004A800201CB5564C1021606A05F000F9F8
:1040A000544EDFF854B1DFF85491DFF854A14FF0CB
:1040B000FF374FF00008012300971A461946606A3F
:1040C00005F028F9C0077DD03078002876D0DBF8DD
:1040D00000005D46002840461ED030702868182831
:1040E00021D32868FCF7C3FA0022464BFCF739FAC3
:1040F0000122FCF7A5FA444A444BFCF7C0F9444AB4
:10410000444BFCF7BCF94FF03332434BFCF729FA30
:10411000FCF713FB206608E0A065C9F80000CAF8A8
:10412000000030704AE0C4F86080DAF8000040F621
:1041300035414843D9F8001001EB0011C9F80010CF
:10414000D9F8000000EBC001C1EB8010FCF78FFA3A
:10415000CDE900012868FCF78AFA00222F4BFCF712
:104160008EF9DDE90023FCF7FCF9FCF7E6FA012102
:10417000E065FCF778F9FCF7CDFA234A234BFCF70E
:104180007EF9234A234BFCF77AF94FF03332224B66
:10419000FCF7E7F90022224BFCF771F90022214BD2
:1041A000FCF7DFF9FCF79DFAA065C5F80080C9F8B7
:1041B0000080CAF80080012004F0C4FE012203211F
:1041C000194D00E010E0284600F0E8FA01212846E9
:1041D00000F036FA154D0021284600F0E7FA0121DB
:1041E000284600F02DFA66E711A000F03FFE62E7D6
:1041F0000000002084000020900000209400002097
:104200009800002000804B401F85EB51B81E0940EC
:10421000A69BC420B072D03F33331040389C8C41F1
:104220000000084000004940002C014000140040FC
:10423000CAC2BCFEB4EDCEF320200D0A000000007F
:104240000CB50021264801910091026842F48032A9
:1042500002604FF4A063026802F400320092019AF7
:10426000521C0192009A12B9019A9A42F3D1026843
:10427000920333D5012100911A490A6842F01002D5
:104280000A600A6822F003020A600A6842F0020229
:104290000A604168416041684160416841F4806161
:1042A0004160416821F47C114160416841F4E811AA
:1042B0004160016841F08071016001688901FCD5AD
:1042C000416821F003014160416841F00201416011
:1042D0004168C1F381010229FAD10CBD00910CBDE6
:1042E000001002400020024010B501210807FEF72F
:1042F000F3FD0120FEF7BEFDBDE81040FEF7C2BD94
:104300004FF0E0210428086903D020F00400086180
:10431000704740F00400FAE710B505F09DFA012857
:1043200003D0BDE8104005F065B810BD0F4810B5CA
:10433000016841F00101016041680D4A114041608E
:1043400001680C4A11400160016821F4802101607C
:10435000416821F4FE0141604FF41F018160FFF7C5
:104360006FFF05494FF00060086010BD001002406B
:104370000000FFF8FFFFF6FE08ED00E070B5048CCA
:1043800024F001040484058B048C4FF6FF7606EAC2
:104390000313134325F0F3050E4A2B4390420ED02E
:1043A0000D4A90420BD0B0F1804F08D00B4A90429A
:1043B00005D00B4A904202D00A4A904202D124F022
:1043C000020201E024F00A020A4342F001010383E1
:1043D000018470BD002C0140003401400004004005
:1043E00000080040000C0040F0B5048C24F01004DC
:1043F0000484078B048C4FF6FF7527F4734705EA96
:1044000003333B4305EA02221A43114B05EA011626
:1044100098420ED00F4B98420BD0B0F1804F08D08D
:104420000D4B984205D00D4B984202D00C4B984250
:1044300005D124F02001314341F0100104E024F0C3
:10444000A0030B4343F0100102830184F0BD000080
:10445000002C0140003401400004004000080040EE
:10446000000C0040F8B5234D0221284600F0F4F876
:10447000B0B3214C6078012802D1A068401CA06034
:104480001E480068C00530D5E07848BBA0780126FA
:1044900000284FF00001284623D000F0D1F8002278
:1044A0000221284600F07AF9A068E060284600F072
:1044B000D1F820610020A66060702670A070009086
:1044C0000F486A460521006804F01CFF40B10098BF
:1044D00030B10C4930070860BFF34F8FBFF36F8FC7
:1044E00003E000F063F96670E6700221284600F0F0
:1044F000A4F8F8BD002C0140840000200808014009
:104500002400002004ED00E010B5094C01212046F4
:1045100000F0A2F828B10749887810B94869401C12
:1045200048612046BDE81040012100F086B8000037
:10453000002C01408400002010B50D4C01212046C4
:1045400000F08AF868B10B4A5079401CC0B2507133
:10455000782806D30849087808B1401E0870002062
:1045600050712046BDE81040012100F066B80000FF
:1045700000080040840000200300002010B50E4C0D
:104580000121204600F068F880B10C4A9079401C67
:10459000C1B29171142909D31821B420FDF714FA7E
:1045A0000021204600F04CF8FFF79EFE2046BDE8B3
:1045B0001040012100F041B8000C004084000020B0
:1045C00010B5094C0121204600F046F8002809D01A
:1045D00006498869401C88612046BDE810400121D9
:1045E00000F02BB810BD0000001000408400002037
:1045F00010B50E4C0121204600F02EF878B10C4980
:104600000879401CC0B20871082808D30020C8707F
:1046100001228A7008710146204600F011F82046F8
:10462000BDE81040012100F008B80000001400406F
:1046300084000020C94301827047C943018270474A
:104640000029018802D041F0010101E021F00101BF
:1046500001807047808C704702460020138A92893F
:104660000B4202EA010202D0002A00D0012070476A
:104670002DE9F05F0D4604460888434FDFF80CC172
:10468000DFF80C814988AA882B894FF0804960B3F4
:10469000042833D04FF6FF7E082838D0208C9B4664
:1046A00020F480502084A38B268C704600EA0222DE
:1046B00023F473431A4300EA0B3010430EEA013E21
:1046C000BC420BD0644509D04C4507D0444505D0C9
:1046D000304A944202D0304B9C4248D126F40051DB
:1046E00041EA0E0141F4805146E02046FFF746FEC4
:1046F000E9882046BDE8F05F00F05AB82046FFF791
:1047000073FEE9882046BDE8F05F00F059B8208CC0
:1047100020F480702084B4F81CA0208C0EEA0313CF
:1047200013432AF0F30A0EEA012B43EA0A03BC42C0
:104730000BD0644509D04C4507D0444505D0154AF7
:10474000944202D0144A944204D120F4007040EA0A
:104750000B0002E020F42060084340F48070A38343
:104760002084E9882046BDE8F05F00F035B826F4E3
:1047700002420A4342F48051A08320462184E98802
:10478000BDE8F05F00F030B8002C0140003401407B
:104790000004004000080040000C0040002A82890C
:1047A00001D00A4300E08A438281704781847047C8
:1047B000028B22F00C020283028B0A4302837047B1
:1047C000028B22F440620283028B4FF6FF7303EAEE
:1047D00001210A4302837047828B22F00C028283FC
:1047E000828B0A4382837047828B22F440628283E9
:1047F000828B4FF6FF7303EA01210A4382837047DD
:1048000030B502881B4B1C4C98420DD0A0420BD0F7
:10481000B0F1804F08D0194DA84205D0184DA842DC
:1048200002D0184DA84203D122F070054A882A43CD
:10483000154DA84206D0154DA84203D022F440756C
:10484000CA882A4302808A8882850A88028598421B
:104850000AD0A04208D00E4A904205D00D4A90429C
:1048600002D00D4A904201D1097A0186012181824C
:1048700030BD0000002C0140003401400004004025
:1048800000080040000C00400010004000140040F0
:10489000004001400044014000480140F0B50D4691
:1048A0000746012189B0C802FEF72EFB0121042032
:1048B000FEF72AFB4FF48070ADF81C0004208DF841
:1048C0001F0003268DF81E6007A92148FDF796FFFB
:1048D0000024ADF81240ADF810701E4FADF8164030
:1048E000ADF814508DF8184004A93846FFF788FF3A
:1048F00001250820ADF80440ADF80850ADF80C00D3
:10490000ADF80640ADF80A4001A93846FFF7B0FE01
:104910001B208DF800008DF8015002208DF8020058
:104920008DF803506846FEF739F819208DF800001D
:104930008DF801508DF802608DF803506846FEF73F
:104940002DF803213846FFF778FE09B0F0BD0000CE
:1049500000080140002C01407FB50D4606460121AC
:104960000420FEF7B9FA0024ADF80640ADF8045073
:10497000144DADF80240ADF800608DF8084069466E
:104980002846FFF73DFF1E208DF80C0001218DF811
:104990000D108DF80E408DF80F1003A8FDF7FEFFE7
:1049A00069462846FFF72CFF01212846FFF742FE03
:1049B000012211462846FFF7F1FE00212846FFF7A5
:1049C0003FFE7FBD000800407FB50D460646012131
:1049D0000820FEF781FA0024ADF80640ADF8045037
:1049E000144DADF80240ADF800608DF808406946FE
:1049F0002846FFF705FF32208DF80C008DF80D409A
:104A00008DF80E4001208DF80F0003A8FDF7C6FFBA
:104A100069462846FFF7F4FE01212846FFF70AFE03
:104A2000012211462846FFF7B9FE00212846FFF76C
:104A300007FE7FBD000C00407FB50C4605460121F6
:104A40001020FEF749FA0022ADF80620ADF8044028
:104A5000154CADF80220ADF800508DF808206946DD
:104A60002046FFF7CDFE36208DF80C0002208DF891
:104A70000D0001218DF80E108DF80F1003A8FDF721
:104A80008DFF69462046FFF7BBFE01212046FFF758
:104A9000D1FD012211462046FFF780FE012120466C
:104AA000FFF7CEFD7FBD0000001000407FB50D4632
:104AB000064601212020FEF70FFA0024ADF806403B
:104AC000ADF80450114DADF80240ADF800608DF81E
:104AD000084069462846FFF793FE37208DF80C0002
:104AE00002208DF80D008DF80E4001208DF80F008A
:104AF00003A8FDF753FF012211462846FFF74EFE9B
:104B000000212846FFF79CFD7FBD000000140040F7
:104B10002DE9F8431C4D40F225563146284600F059
:104B20006FF8002824D0284600F0F8F8C4B23146C7
:104B3000284600F055F80026144FDFF854804FF057
:104B400080551A2C16D02A2C12D112A000F08EF902
:104B500000960221386804F08DFB002808D00098E8
:104B6000002805D0C8F80050BFF34F8FBFF36F8FF8
:104B7000BDE8F8830AA000F079F900966A460221A0
:104B8000386804F0BFFBE8E700380140240000204B
:104B900004ED00E0200A53544F50200D0A0000009D
:104BA000200A5354415254200D0A000038B50A4CD3
:104BB00040F22551204600F023F800280AD0204674
:104BC00000F0ACF88DF80000044801226946006846
:104BD000FEF700FA38BD0000004400406C000020E1
:104BE0000A0A01219140C943018070470029818947
:104BF00002D041F4005101E021F40051818170475D
:104C000030B501F01F0201240025C1F3421304FA5C
:104C100002F2012B0FD0022B0FD0838A4FEA112111
:104C20000088134204FA01F400EA040001D000B144
:104C30000125284630BD8389F0E7038AEEE710B5E9
:104C4000C1F3421301F01F040121A140012B07D041
:104C5000022B07D01430002A026805D00A4304E072
:104C60000C30F8E71030F6E78A43026010BD000010
:104C700030B50446008A85B00D464CF6FF710840F9
:104C8000E98801432182A1894EF6F3100140A888EA
:104C90002A8910436A890A431043A081A08A4FF6EB
:104CA000FF410840A9890143A1826846FEF74AF9FD
:104CB0001948844201D1039800E00298A1890904AF
:104CC00000EBC00101EB0010296801D5490000E0AC
:104CD0008900B0FBF1F06422B0FBF2F109010B098D
:104CE0006FF018056B4300EB8300A3891D044FF0A0
:104CF000320306D503EBC000B0FBF2F000F0070072
:104D000005E003EB0010B0FBF2F000F00F000843E9
:104D1000208105B030BD0000003801408088C0F31C
:104D20000800704708B5194C4FF0FF350095012376
:104D300000220221606A04F0EDFA8007F6D514A083
:104D400000F094F81CA0A16D00F090F8A1781FA0CD
:104D500000F08CF82249606EFBF747FBFBF7DAFCAA
:104D600002460B461FA000F081F82279218B23A078
:104D700000F07CF861792CA000F078F804A000F035
:104D800075F842F2747004F0DDF8CFE700000020FF
:104D90002D2D2D2D2D2D2D2D2D2D2D2D2D2D2D2D43
:104DA0002D2D2D2D2D2D2D2D2D2D2D2D2D2D2D2D33
:104DB0002D2D2D2D2D0000005370656564203A20A7
:104DC0002564206B6D2F68200D0A00004F696C2050
:104DD0003A202564206B6D2F68200D0A000000002A
:104DE00000007A444D696C65616765203A20252E84
:104DF0003266206D6B200D0A000000004261747461
:104E0000657279203D202564206D76A3AC426174E3
:104E1000746572795F666C6167203D20256420B8F7
:104E2000F1200D0A000000004E6574776F726B5F11
:104E30005369676E616C203D20256420B8F1200D18
:104E40000A000000FEE770B504460D4645F25550D5
:104E5000FDF76EFD2046FDF74DFD2846FDF750FDA0
:104E6000FDF740FDBDE87040FDF734BD0FB4054BC4
:104E700010B503A9044A029800F006F910BC5DF8C9
:104E800014FB000061780008A40100200FB4084B57
:104E900010B504A902AA039800F0F6F8044602A986
:104EA000002000F074FC204610BC5DF814FB0000EC
:104EB0008F57000800487047B00100200148006883
:104EC00070470000B001002002E008C8121F08C1AE
:104ED000002AFAD170477047002001E001C1121F7B
:104EE000002AFBD1704700000149086070470000AC
:104EF000B00100202DE9FF5F82B00021DDE9043020
:104F0000020DDDF840B0034318D044F61050A2F271
:104F1000FF3242431514119801281FD0A5EB0B0056
:104F2000401C5FEA000A4FF000064E4FDFF8389150
:104F3000B046504615D5CAF1000413E0119801247B
:104F40004AA3012801D16FEA0B010298119AC0E926
:104F50000031C0E9024206B0BDE8F09FCBF100008D
:104F6000DFE704460021404A491842EB0450CDE9EE
:104F7000001012E0E00707D032463B464046494663
:104F8000FBF77DFA8046894632463B461046194675
:104F9000FBF775FA06460F466410002CEAD1DDE9EE
:104FA0000401DDE90023BAF1000F06DAFBF767FA26
:104FB00042464B46FBF763FA05E0FBF7D2FA42465E
:104FC0004B46FBF7CEFA04460E460022284BFBF771
:104FD00001FE03D84FF0FF30014607E00022254BC9
:104FE00020463146FBF736FDFBF7DBFD102409E0D8
:104FF000002C0ADB0A220023FBF7D1FB039B303293
:105000001A55641E50EA0102F2D1641C039AC4F1DD
:1050100011031444119A012A03D0012208430DD12F
:105020000AE0084304D000204FF0110B119072E702
:10503000A3EB0B056D1E0DE05B4504DD4FF0000298
:1050400005F1010504E003DA4FF00002A5F10105C6
:10505000002AECD002981199C0E90231C0E900455C
:1050600079E70000000014400000F03F300000002D
:105070000000F0430000E03F30380A2801D2012050
:1050800070470020704700002DE9FF4F95B09A4609
:10509000884606460025EEE1252877D100242746DC
:1050A000F94A0121039400E0044316F8013F203B34
:1050B00001FA03F01042F7D130782A2811D06FF0AE
:1050C0002F033078A0F13002092A16D8039A44F051
:1050D000020402EB820203EB42021044761C0390AE
:1050E000EFE758F8042B0392002A03DA504244F405
:1050F0000054039044F00204761C30782E2816D118
:1051000016F8010F44F004042A280DD06FF02F0286
:105110003078A0F13003092B09D807EB870302EBA5
:105120004303C718761CF3E758F8047B761C3078E5
:105130006C280FD006DC4C2817D068280DD06A28C0
:1051400014D104E0742810D07A280FD10DE044F473
:1051500000140AE044F4801401E044F4401472782E
:10516000824202D104F58014761C761C30786628C1
:105170000BD013DC582877D009DC002875D04528DF
:10518000F6D04628F4D047281AD193E118E06328D6
:1051900035D0642879D0652812D18BE1702873D07E
:1051A00008DC6728F1D069286FD06E280DD06F28F1
:1051B00006D1ACE073282CD0752874D0782853D051
:1051C0005246179990476D1C54E1C4F302500228CF
:1051D00009D003280DD0D8F8001004280DD00D6098
:1051E00008F1040846E1D8F80010EA17C1E90052B6
:1051F000F6E7D8F800100D80F2E70D70F0E718F828
:10520000041B8DF8001000208DF80100EB460120F2
:1052100003E058F804BB4FF0FF3061074FF0000186
:1052200002D40DE009F101018946B9420FDA814546
:10523000F8DB1BF809100029F4D108E009F101019D
:1052400089468142FADB1BF809100029F6D1039840
:105250005346A0EB090721463846179A00F080FA1A
:10526000284400EB090507E044E008E10DE01BF8E5
:10527000010B524617999047B9F10109F7D25346ED
:1052800021463846179AF2E039E00A21C4F3025267
:105290004FF0000B0091022A06D058F8040BC117FA
:1052A000032A09D00AE023E008F1070020F00702F2
:1052B000F2E80201904605E000B2C117042A01D1CC
:1052C00040B2C117002906DA0A460021404261EBCC
:1052D00002012D2202E0220504D52B228DF80420A4
:1052E000012203E0E20701D02022F7E7914657E0D0
:1052F0000A2100E010214FF0000B00910BE010217B
:105300004FF0000B44F004040827009103E008204C
:105310004FF0000B0090C4F30252022A05D058F857
:10532000040B0021032A08D008E008F1070020F050
:105330000702F2E80201904603E080B2042A00D19D
:10534000C0B24FF0000922072AD53278702A07D060
:10535000DDF800C08CF0100C5CEA0B0C05D00EE000
:1053600040228DF80420012208E050EA010306D013
:1053700030238DF804308DF8052002229146009BE1
:1053800083F0080353EA0B030AD150EA010201D16A
:10539000620705D530228DF804204FF001097F1EE9
:1053A0003278582A04D039A20C920CAA02920BE04F
:1053B0003BA2F9E75B46009AFBF7F1F90C9B9B5C7B
:1053C000029A521E0292137050EA0102F2D1029820
:1053D00004A9081A00F1200B600702D524F48034D8
:1053E00000E001275F4502DDA7EB0B0000E0002095
:1053F00000EB0B01009003984944401A0390E0032E
:1054000006D453462146179A039800F0A9F905449B
:10541000002706E001A85246C05D179990476D1C11
:105420007F1C4F45F6DBE0030CD553462146179A07
:10543000039800F095F9054404E03020524617998E
:1054400090476D1C0099481E00900029F5DC08E08B
:105450000298029952460078491C02911799904788
:105460006D1CBBF10001ABF1010BF1DC5BE100F065
:1054700065F90544761C307800287FF40DAE19B02C
:105480002846BDE8F08F0000092801003031323392
:105490003435363738396162636465660000000070
:1054A000303132333435363738394142434445465A
:1054B00000000000600700D4062708F1070020F074
:1054C0000700F0E80223804603F0004C5FEA0C007E
:1054D00001D097A009E0200501D596A005E0E007DE
:1054E00001D095A001E0AFF24C001390307823F08A
:1054F000004365280CD006DC452809D046281DD07D
:1055000047287FD13BE0662818D067287AD136E05B
:105510000021112F01DB112000E0781CCDE90001F2
:1055200004A90CA8FFF7E6FCDDE90D010C9A4FF089
:10553000000B07F10109109200914EE04FF000407E
:105540000097CDE9011004A90CA8FFF7D3FCDDE911
:105550000D020C9B0F994FF0000B91461093009297
:1055600011B9791C00EB0109B7EB090003D4C0F1B4
:10557000FF3B07F10109A9EB0700019042E0012F71
:1055800000DA01270021112F01DD112000E038464B
:10559000CDE9000104A90CA8FFF7ACFCDDE90D0181
:1055A0000C9A00914FF0000BB946109221070FD4CE
:1055B000009A4A4503DA914601E0A9F10109B9F1DF
:1055C000010F05DD109AA9F10101515C3029F4D0D9
:1055D000B84202DA10F1040F03DA0121CDE901101B
:1055E00010E0002803DC8344A9EB000102E0411C29
:1055F000494500DD8946A0EB0B00401C01904FF0AF
:1056000000400290200705D40198484502DB4FF086
:10561000FF30019000208DF84B0002980DF14B07F0
:10562000B0F1004F25D002200C902B200D90029855
:1056300000280CDA404202902D200D9007E00A214C
:105640000298FBF796F83031029007F8011D0C998B
:10565000481E0C900029F2DC02980028EFD1791E38
:105660000D980870307800F0200040F0450007F8F1
:10567000020D11A8C01BC01D02901398007800B144
:10568000012000EB0901019801EBE071029801444F
:105690000398401A401E0390E00306D45346214667
:1056A000179A039800F05CF805441398007818B135
:1056B0005246179990476D1CE00323D55346214667
:1056C000179A039800F04CF805441BE0BBF1000F5B
:1056D00007DB0098584504DD1098179910F80B0067
:1056E00001E0179930205246904701980BF1010BC9
:1056F000401E05F10105019004D12E205246179954
:1057000090476D1CB9F10001A9F10109DEDC05E04B
:1057100017F8010B5246179990476D1C0299481EC5
:1057200002900029F4DC53462146179A03989EE61E
:105730002D0000002B000000200000002DE9F041AA
:10574000044600251E461746880404D405E0394661
:105750002020B0476D1C641EF9D52846BDE8F081B5
:105760002DE9F041044600251E469046C80301D5A8
:10577000302700E02027880404D505E0414638465C
:10578000B0476D1C641EF9D52846BDE8F0810A6853
:10579000531C0B601070704730B583B00446FFF7A0
:1057A0008DFB05460020CDE90000024621466846F3
:1057B000FBF751F82846FFF797FBDDE9000103B03E
:1057C00030BD000070B504460020E070401E6063EC
:1057D000204602F039FB08B1042070BD04F23620E7
:1057E00002F086F9054694F838004AF65526EB286B
:1057F00003D0E92801D0E8283FD1B54207D10822DB
:1058000021A104F18A00FAF752FD0028E5D004F145
:10581000430002F06DF994F84510421E10422CD15D
:10582000B0F5007F29D3B0F5805F26D829B3481E94
:10583000014222D104F1460002F05AF9E8B194F88D
:105840004800401E012818D804F1490002F050F920
:1058500098B104F14B0002F04BF9802806D204F114
:10586000580002F03AF9B0F5803F06D304F14E003B
:1058700002F03EF908B1002070BDB54201D102200E
:1058800070BD032070BD00004641543332202020FB
:1058900000000000C269891E921E8A4201D80020C1
:1058A0007047026B408900FB012070472DE9F05FD3
:1058B00082460C4601F11A0002F01AF978BB2078F2
:1058C000012700F03F00401E00EB8001DFF85890F8
:1058D00001EBC00500264FF6FF7B00BF19F806005C
:1058E000204402F005F980466FB1FF2D17D801F072
:1058F00035FF07463AF815006D1C01F02FFF87426F
:105900000DD1474601E0D84509D1761C0D2EE5D3CF
:105910002078400606D52FB13AF8150010B10020C6
:10592000BDE8F09F0120FBE7909E00082DE9F041C3
:1059300006680F00804606D002F014F8022809D24B
:105940000120BDE8F081746914B1F069A04207D864
:10595000012405E0411CF4D0F1698142F1D83C46B4
:10596000B0690028EDD0BC4216D1F069651CA84290
:1059700000D802252946404601F0F4FF0128E0D076
:10598000411CDED038B17069022805D3F16981422B
:1059900002D9044600E0A5B92546F0696D1CA8426D
:1059A00002D80225022C0AD32946404601F0DAFF2C
:1059B00038B10128C5D0411CC3D0A542EDD100208B
:1059C000BFE74FF0FF3422462946304602F0B5FECD
:1059D00030B95FB12A463946304602F0AEFE28B1F2
:1059E000012800D0012425462846AAE77561D6E99A
:1059F0000601891E884201D8401EB061307940F00E
:105A000001003071F0E700002DE9F84F8246006890
:105A10000E680024D0F810708846A14616F8015B85
:105A2000284600F0B9F960B116F8010B40284BD3B5
:105A30007E2803D9A0F180017E2945D800EB0520FE
:105A400085B235B14FF46A71284601F039FE050080
:105A50003AD0681C38D0B5F5803F03D3280C27F81E
:105A60001400641C202D1AD32F2D0FD05C2D0DD0C7
:105A7000802D04D2294675A0FAF7FAFB20BBFF2C33
:105A800022D227F81450641CC8E7761C30782F28DF
:105A9000FBD05C28F9D00025C0B2202800D2042514
:105AA000C8F8006009E000BF07EB440030F8020CC2
:105AB000202801D02E2802D1641E002CF4D127F812
:105AC00014900CB1002603E00620BDE8F88F761C88
:105AD00037F816002028FAD016B938882E2803D1B6
